:020000040800F2
:1000000000020010519D00086DF9000885F90008F4
:100010001DFA000805FB000801FC000800000000B4
:100020000000000000000000000000007D14010836
:10003000E9FC0008000000000DFD00084114010863
:10004000799D0008799D0008799D0008799D000838
:10005000799D0008799D0008799D0008799D000828
:10006000799D0008799D0008799D0008799D000818
:10007000A5000108799D000869000108799D000824
:10008000D9850008799D0008799D0008799D0008B0
:10009000799D0008799D0008799D0008799D0008E8
:1000A000799D0008799D0008799D0008799D0008D8
:1000B000799D0008799D0008799D0008799D0008C8
:1000C000799D0008799D0008799D0008799D0008B8
:1000D000799D000829FF000885FF0008E1FF00085E
:1000E000799D0008799D0008799D0008799D000898
:1000F000799D0008799D0008799D0008799D000888
:10010000799D0008D1180108799D0008799D0008A3
:10011000799D0008799D0008799D0008799D000867
:10012000799D0008799D0008799D000895180108BF
:10013000799D0008799D0008799D0008799D000847
:10014000799D0008799D0008799D0008799D000837
:10015000799D0008799D0008799D0008799D000827
:10016000799D0008799D0008799D0008799D000817
:10017000799D0008799D0008799D0008799D000807
:10018000799D0008799D000808B5062000F020FF41
:1001900001200EF067FE00BF00B587B0144604933F
:1001A00005900E460EF0ACFEDDE90423C06844B1B4
:1001B00005490096CDE90114044900F083F9FFF7E1
:1001C000E3FF03490C46F4E71C5E02082C5E0208BC
:1001D000285E020808B513460022FFF7DDFF00BFC6
:1001E00010B40C4613460146224602205DF8044B2B
:1001F0000EF02ABE38B5002504468181C281C0E9CF
:100200000055C0E904558560856785612946082247
:10021000703000F08DFE07480749084A084B2462F9
:10022000C4E91855C4E91A55C4E90901C4E90B2306
:1002300038BD00BFF5100008251100086D11000839
:10024000AD1100080D4B4168994210B5044601D02C
:1002500002F0F2F9A1680A4B994202D0204602F05E
:10026000EBF9E168074B994202D0204602F0E4F92D
:1002700020460549BDE8104000F05AB9481A001060
:10028000C81A0010481B00103926000808B5836FF3
:10029000DA0702D483899B0501D5002008BD6030B0
:1002A00013F0A2F9002008BD08B5836FDA0702D465
:1002B00083899B0501D5002008BD603013F0B6F995
:1002C000002008BD70B54D1EED010E4605F19001F0
:1002D00000F0AEF9044640B100211030666005F12F
:1002E00080022160A06000F023FE204670BD00BFA8
:1002F000014B1868FFF7A6BFFC51020870B5044611
:10030000194813F071F9A369BBB91849184809686D
:10031000184A2262A142026A6364C4E90F3300F101
:10032000800608BF012300F5807508BF8B61C4E912
:100330000265606032B10123A361BDE870400A48E4
:1003400013F074B90323C1E910300421FFF752FF01
:10035000304601220821FFF74DFF284602221221D4
:10036000FFF748FFE7E700BFC0190010FC51020883
:10037000481A001045020008F0B583B001A90746ED
:10038000012013F072F9294813F02EF9284B1E684A
:10039000B369002B33D03C36D6E90134013B04D598
:1003A00029E05A1C04F1800425D0B4F90C50013B1B
:1003B000002DF6D11F4BE360C4E91855C4E91A5566
:1003C0001A48A56713F032F901A9019813F04DF905
:1003D000C4E90155C4E904552560A56108222946F0
:1003E00004F1700000F0A4FDC4E90D55C4E91255F4
:1003F000204603B0F0BD34682CB12646CCE7304629
:10040000FFF77CFFC7E704213846FFF75BFF044690
:1004100030600028F1D1054813F008F9019801A9CE
:1004200013F023F90C233B60E2E700BFD019001062
:10043000FC5102080100FFFF014813F0D5B800BFCE
:10044000D0190010014813F0F1B800BFD019001006
:10045000014813F0C9B800BFC0190010014813F0DB
:10046000E5B800BFC019001008B5054813F0BCF886
:100470000EF046FDBDE80840024900F039B800BF63
:10048000D01900108D02000808B50EF039FD04499E
:1004900000F02EF8BDE80840024813F0C7B800BFCE
:1004A000A9020008D01900100CB400B583B004AB49
:1004B00053F8042B019301F079F903B05DF804EBD4
:1004C00002B070470EB400B584B005AB009053F88D
:1004D000042B019203930EF013FDDDE90012039B40
:1004E00001F064F904B05DF804EB03B0704700BF9D
:1004F0002DE9F04100F13C0788460026D7E9015478
:10050000013D0FD4A389012B05F1FF3506D9B4F9BC
:100510000E30013302D02046C04706436B1C04F165
:100520008004EFD13F68002FE8D13046BDE8F0816C
:100530002DE9F8430746884600F13C064FF00009D4
:10054000D6E90154013D11D4A389012B05F1FF35F2
:1005500008D9B4F90E30013304D021463846C047DB
:1005600049EA00096B1C04F18004EDD13668002EC5
:10057000E6D14846BDE8F88370B4124C04F58065B6
:1005800054F8083F5E6826F003060F2E3146D4BFAC
:1005900000200120E368A34208D05A68DB6822F0FB
:1005A0000302A34200F101001144F6D10834A54230
:1005B000F0D1054B1A685860521AC3E90816DA617F
:1005C00070BC70477C020010E4190010F8B50B4DA8
:1005D000064608460F460EF087FCFFF7CDFF0FCD0D
:1005E00034460FC40FCD0FC495E8030084E8030020
:1005F00038460EF07FFC3046F8BD00BFE41900100D
:1006000000B583B001900EF07BFC019903B05DF85A
:1006100004EB00F00DB800BF00B583B001900EF000
:100620006FFC019903B05DF804EB02F07FBA00BFE4
:100630002DE9F04F01F10B05162D83B0064623D8A6
:10064000102900F2A7800EF04FFC1025022018237D
:10065000CD4F3B44A3F108025C68944200F0A780B0
:10066000636823F003032344D4E902515A68E96024
:1006700042F0010230468D605A600EF03BFC0834B7
:10068000204603B0BDE8F08F35F0070500F1828009
:10069000A9427FD80EF028FCB5F5FC7FC0F0AC81F4
:1006A0006B0A7ED0042B00F27581AB0903F139008F
:1006B00003F1380CC300B44F3B44A3F108015C685C
:1006C000A14206D10CE0002A80F22A81E468A1420E
:1006D00006D0636823F003035A1B0F2AF3DD60463C
:1006E0003C69DFF8A88244456CD0626822F00302BE
:1006F000531B0F2B00F38E81002BC7E9048880F277
:100700007F81B2F5007F80F01981D1080131520953
:10071000012393407A6857F831C0C4F808C007EB4A
:10072000C10E1343AEF10802E2607B6047F831402E
:10073000CCF80C4082104FF0010C0CFA02FC9C45E6
:1007400048D81CEA030F08D120F003004FEA4C0CF4
:100750001CEA030F00F10400F8D007EBC00AD646EC
:100760008146DEF80C300BE0596821F003014A1B8A
:100770000F2A1C46DB6800F31981002A80F22F81C2
:100780009E45F1D109F1010919F0030F0EF1080E90
:10079000E7D167E10C2333600024204603B0BDE8B5
:1007A000F08F4FF4007340204FF03F0C83E7DC687C
:1007B000A34208BF02307FF453AF3C69DFF8CC811D
:1007C000444592D17B6882104FF0010C0CFA02FC78
:1007D0009C45B6D9BC68636823F003094D4504D82D
:1007E000A9EB05030F2B00F38B80DFF8A4A1D7F84A
:1007F0000824DAF8003001322B441BBF03F20F4803
:1008000028F47F7803F1100828F0030841463046A9
:100810000EF030FB411C04EB090B024600F0148182
:10082000834500F20F81DAF804104144CAF804103D
:100830000B4600F06581D7F8081401311BBFA2EB0D
:100840000B0B5B44C7F80824CAF8043012F0070306
:1008500000F02C81C3F108010A449044C3F5816182
:10086000A1EB0801C1F3090B5946304601920093F0
:100870000EF000FB421CDDE9003200F06581801AB9
:1008800000EB0B08DAF80400BA6048F001030BEB48
:100890000001BC425360CAF8041000F03C81B9F179
:1008A0000F0F40F23A816368A9F10C0020F00700B5
:1008B00003F0010304EB000C03434FF0050E0F2877
:1008C0006360CCE901EE00F2468153681446DAF821
:1008D0002C208A42DAF8302038BFCAF82C108A421D
:1008E00038BFCAF8301023F003084545A8EB0503CC
:1008F00001D80F2B04DC30460EF0FCFA00244CE744
:10090000621943F0010345F0010565603046BA60A5
:1009100053600EF0EFFA0834204603B0BDE8F08FC4
:100920002344E1685A68A56842F00102E960304654
:100930008D605A600EF0DEFA08342EE7B2F5206FB3
:100940004FEA522378D3142B00F2C28003F15C01EA
:10095000C9005B3307EB010C7958ACF1080C8C45EE
:1009600000F09B804B6823F00303934202D989680F
:100970008C45F7D1D1F80CC07B68C4E9021CCCF8D7
:100980000840CC60D6E600BF7C0200108402001054
:10099000E0190010142B5AD9542B00F2A1802B0B14
:1009A00003F16F0003F16E0CC30084E6D4F808E095
:1009B00004EB050C45F00105656042F00105CEF839
:1009C0000C303046C3F808E0C7E904CCCCE9028813
:1009D000CCF8045062500EF08DFA0834DDE6214464
:1009E00054F8085F4A6842F001024A603046EB6002
:1009F0009D600EF07FFAD0E6E80805F1080327E6CF
:100A000022443046536843F00103536008340EF02B
:100A100071FAC2E6611945F0010C43F00105C4F812
:100A200004C03046C7E90411C1E902884D60A350F3
:100A30000EF060FA0834B0E6930903F13901C900F9
:100A4000383387E7BC4255D0BC6863684BE703F195
:100A50005C0003F15B0CC3002DE65AF808395345DE
:100A600040F0978010F0030F00F1FF30F5D17B6864
:100A700023EA0C037B604FEA4C0C9C453FF6AAAE80
:100A8000BCF1000F04D1A5E64FEA4C0C09F10409B2
:100A90001CEA030FF8D048465FE69A104FF0010EAB
:100AA0007B680EFA02F213437B6066E702EB0801F3
:100AB0004942C1F3090B59463046019300920EF0AA
:100AC000D9F9431CDDE900237FF4D9AE9B46D9E672
:100AD000542B25D8130B03F16F01C9006E3339E78E
:100AE000B3F5AA7F25D8EB0B03F1780003F1770C5F
:100AF000C300E0E5DAF804304344CAF804309AE66B
:100B0000CBF3090000287FF496AEBC68C84448F0D7
:100B100001036360DBE61446D9E601235360EAE68D
:100B2000B3F5AA7F21D8D30B03F17801C90077333D
:100B300010E740F25452934221D8AB0C03F17D00F0
:100B400003F17C0CC300B6E5083B9844A8EB02080F
:100B50004FF0000B96E604F10801304601F0E6FF85
:100B6000BC68DAF804106368B1E640F254518B4275
:100B70000BD8930C03F17D01C9007C33EAE64FF4F6
:100B80007E737F204FF07E0C95E54FF47E717E23BF
:100B9000E0E67B686FE700BF000000000000000097
:100BA00001F0FF01102A2BDB10F0070F08D010F81E
:100BB000013B013A8B422DD010F0070F42B3F6D122
:100BC000F0B441EA012141EA014122F007047FF03B
:100BD00000070023F0E80256083C85EA010586EA92
:100BE000010685FA47F5A3FA87F586FA47F6A5FACE
:100BF00087F68EB9EED1F0BC01F0FF0102F00702DA
:100C000032B110F8013B013A83EA010313B1F8D184
:100C10000020704701387047002D06BF3546033865
:100C2000073815F0010F07D1013015F4807F02BF9E
:100C3000013015F4C03F0130F0BC0138704700BFEF
:100C4000032A70B412D940EA0105AD0704460B46E9
:100C50001ED11946204653F8045B54F8046BAE428B
:100C600016D1043A032A20461946F2D8561EA2B1DC
:100C70000139441E01E0C3180CD014F8015F11F8CB
:100C8000012F9542A6EB0403F5D0A81A70BC70475B
:100C9000561EEDE7184670BC70471046F6E700BFD9
:100CA000844641EA000313F003036DD1403A41D377
:100CB00051F8043B40F8043B51F8043B40F8043B36
:100CC00051F8043B40F8043B51F8043B40F8043B26
:100CD00051F8043B40F8043B51F8043B40F8043B16
:100CE00051F8043B40F8043B51F8043B40F8043B06
:100CF00051F8043B40F8043B51F8043B40F8043BF6
:100D000051F8043B40F8043B51F8043B40F8043BE5
:100D100051F8043B40F8043B51F8043B40F8043BD5
:100D200051F8043B40F8043B51F8043B40F8043BC5
:100D3000403ABDD2303211D351F8043B40F8043B65
:100D400051F8043B40F8043B51F8043B40F8043BA5
:100D500051F8043B40F8043B103AEDD20C3205D375
:100D600051F8043B40F8043B043AF9D2043208D06D
:100D7000D2071CBF11F8013B00F8013B01D30B88DF
:100D800003806046704700BF082A13D38B078DD0BD
:100D900010F003038AD0C3F10403D21ADB071CBF8F
:100DA00011F8013B00F8013B80D331F8023B20F8F9
:100DB000023B7BE7043AD9D3013A11F8013B00F832
:100DC000013BF9D20B7803704B7843708B788370BA
:100DD000604670478842F0B40DD98B1883420AD917
:100DE000841832B1224613F8014D02F8014D9942A0
:100DF000F9D1F0BC70470F2A0ED80346541E002AC2
:100E0000F7D001340C44013B11F8012B03F8012FFA
:100E1000A142F9D1F0BC704740EA01039B073FD1E2
:100E2000A2F1100323F00F0401F1200727441B094E
:100E300001F1100400F1100554F8106C45F8106C25
:100E400054F80C6C45F80C6C54F8086C45F8086CB8
:100E500054F8046C45F8046C1034BC4205F11005DC
:100E6000EAD1013312F00C0F01EB031102F00F0471
:100E700000EB031317D0043C24F0030CA5089C449A
:100E80001C1F0E4656F8047B44F8047F6445F9D1D4
:100E90006C1C03EB840301EB840102F00302ADE759
:100EA000541E0346ADE72246A8E700BF70B483187E
:100EB000551E44199807CEB211D06AB1234603E0FB
:100EC00082070DD0013D07D3184613F80129B2421D
:100ED0001C46F5D170BC7047002070BC70471546A9
:100EE000032D0CD815B32346651B01E0AB42F3D0AC
:100EF000184613F80129B242F8D170BC70470902B4
:100F000089B2314341EA0141033C2346043C1A685B
:100F10004A40A2F1013020EA020212F0803F03D1E0
:100F2000043D032D2346F0D8DC1CDBE72846D1E73F
:100F3000F0B4860746D0541E002A3CD0CAB20346FD
:100F400001E0013C37D303F8012B9D07F9D1032CB5
:100F50002AD9CDB245EA05250F2C45EA054534D9F5
:100F6000A4F1100222F00F0C03F1200716096744C8
:100F700003F1100242E9045542E902551032BA4227
:100F8000F8D1721C14F00C0F03EB021204F00F06E0
:100F900013D0331F23F003030433134442F8045BDC
:100FA0009342FBD106F003042CB1CAB21C4403F8EF
:100FB000012B9C42FBD1F0BC704734461346002CF9
:100FC000F3D1F8E714460346C1E71A462646E0E7A0
:100FD00010B582B001900DF093FF04460EF056F963
:100FE000019A0146204602B0BDE810400EF03CB91F
:100FF00010B582B0044601910EF048F9019A0146FD
:10100000204602B0BDE810400EF02EB938B50C46AF
:101010000968054609B1FFF7F9FF21462846BDE8F2
:10102000384001F083BD00BF314B1B68834259D06B
:10103000C26970B50546002A4FD0D16891B100262B
:101040008C5944B121462468284601F06FFD002CDC
:10105000F8D1EB69D9680436802EF1D1284601F029
:1010600065FDEA69116800293DD0284601F05EFD62
:10107000696911B1284601F059FDEA691AB11146B2
:10108000284601F053FD296B11B1284601F04EFDB1
:10109000696B11B1284601F049FDA96B11B12846D1
:1010A00001F044FDE96C11B1284601F03FFDA96C47
:1010B00011B1284601F03AFDE96A11B1284601F064
:1010C00035FDAB696BB12B6A28469847E96B41B196
:1010D0002846BDE87040FFF799BF41690029C9D192
:1010E000D1E770BD704769690029C3D1C7E700BF68
:1010F0002802001010B50C46B1F90E100DF088FF53
:10110000002807DBD4E91623121843EBE073C4E987
:10111000162310BDA38923F48053A38110BD00BF03
:10112000002070472DE9F041B1F90C509846EB05CD
:101130000C4682B0B1F90E10174606460AD425F4C3
:10114000805543463A463046A58102B0BDE8F0419D
:101150000DF013BF02230093002200230DF08DFF3A
:10116000B4F90C50B4F90E10E9E700BF10B582B025
:101170000C460093B1F90E10D3170DF07EFF4B1CF7
:1011800008BFB0F1FF3F024609D00B46A1891046C7
:1011900041F48051C4E91623A18102B010BDA18998
:1011A000104621F48051A18102B010BDB1F90E109A
:1011B0000DF0B0BE11F0FF01034600F0030243D072
:1011C00092BB70B4046841EA012646EA064686EA04
:1011D0000405A5F10133A4F1013223EA050322EA53
:1011E0000402134313F0803F0FD150F8044F84EAF8
:1011F0000605A5F10132A4F1013322EA050223EA32
:101200000403134313F0803FEFD0037823B936E093
:1012100010F8013F002B32D09942F9D130E08A42D8
:1012200011D09A071846CCD0184613F8012B002A83
:10123000F5D1104670479907184607D01846013374
:101240000278002AF7D17047002AF7D10268A2F18C
:10125000013323EA020313F0803F08D150F8042F32
:10126000A2F1013323EA020313F0803FF6D00378A2
:10127000002BE8D010F8013F002BFBD17047184637
:1012800070BC70470000000000000000000000007B
:10129000000000000000000000000000000000004E
:1012A000A2EB0300704700BF02780B78012A28BF29
:1012B0009A42F5D16DE9044540EA0104CDE902679F
:1012C0006FF0000C4FEA447212B380EA010414F08C
:1012D000070F6AD100F0070420F0070004F00305AF
:1012E00021F007014FEAC505F0E8042314F0040FCC
:1012F000F1E804670CFA05F462EA040266EA0406FF
:101300000AD063EA0403624667EA0407664603E01C
:10131000F0E80423F1E8046782FA4CF582EA060457
:10132000A4FA8CF46CBB83FA4CF583EA0705A5FAA2
:101330008CF595B950E9022351E9026782FA4CF520
:1013400082EA0604A4FA8CF483FA4CF583EA0705D2
:10135000A5FA8CF52543DBD09CB92DBAB5FA85F4F6
:1013600024F0070427FA04F1DDE9026723FA04F305
:1013700003F0FF0001F0FF01FDE80445A0EB0100D0
:10138000704724BAB4FA84F424F0070426FA04F16E
:10139000DDE9026722FA04F202F0FF0001F0FF012A
:1013A000FDE80445A0EB0100704714F0030F3CD1A9
:1013B00010F0030428D150F8082B51F8083B82FAAA
:1013C0004CF582EA0305A5FA8CF55DB950F8042CBA
:1013D00051F8043C82FA4CF582EA0305A5FA8CF533
:1013E000002DE8D02DBAB5FA85F424F0070423FACD
:1013F00004F122FA04F202F0FF0001F0FF01FDE81F
:101400000445A0EB010070474FEAC40420F003003C
:1014100050F8082B21F0030151F8083B0CFA04F4B2
:1014200062EA040263EA0403C9E710F003041AD075
:10143000A1EB040120F00300E40750F8042B06D0D0
:101440000FD28B785FFAA2F4E41A06D12BB1CB78D5
:101450005FFAB2F4E41A00D11BB920465DF8104BD4
:10146000704701F1040150F8042BCC0721F003016F
:1014700051F8043B48D824D222F07F4482FA4CF53C
:1014800094EA1325A5FA8CF50AD165B951F8043B05
:1014900084EA0204B4EB036F0ED150F8042BEBE79F
:1014A0004FEA132355E035F07F454DD10878FDE82C
:1014B0000445C0F1000070474FEA126203F0FF03D9
:1014C00047E002EA1C4482FA4CF594EA1345A5FA77
:1014D0008CF50AD165B951F8043B84EA0204B4EBF7
:1014E000034F0CD150F8042BEBE74FEA134330E0E5
:1014F00015EA1C4528D10B884FEA124229E04FEA31
:10150000124203EA1C4324E002F0FF0482FA4CF585
:1015100094EA1365A5FA8CF50AD165B951F8043B34
:1015200084EA0204B4EB032F09D150F8042BEBE753
:101530004FEA13630DE015F0FF0F05D10B684FEA7A
:10154000122223F07F4304E04FF00000FDE8044541
:10155000704712BA1BBA82FA4CF482EA0304A4FA66
:101560008CF5B5FA85F402FA04F203FA04F34FEAB3
:101570001260FDE80445A0EB1360704780EA0102A9
:10158000844612F0030F4FD111F0030F32D14DF802
:10159000044D11F0040F51F8043B0BD0A3F10132BC
:1015A0009A4312F0803F04BF4CF8043B51F8043BCF
:1015B00016D100BF51F8044BA3F101329A4312F047
:1015C000803FA4F101320BD14CF8043BA24312F04E
:1015D000803F04BF51F8043B4CF8044BEAD023464B
:1015E0000CF8013B13F0FF0F4FEA3323F8D15DF8FD
:1015F000044B704711F0010F06D011F8012B0CF8C5
:10160000012B002A08BF704711F0020FBFD031F83C
:10161000022B12F0FF0F16BF2CF8022B8CF80020C3
:1016200012F47F4FB3D1704711F8012B0CF8012B46
:10163000002AF9D1704700BF000000000000000040
:1016400090F800F06DE9024520F007016FF0000C02
:1016500010F0070491F820F040F049804FF00004AA
:101660006FF00700D1E9002391F840F000F1080085
:1016700082FA4CF2A4FA8CF283FA4CF3A2FA8CF3BD
:101680004BBBD1E9022382FA4CF200F10800A4FA24
:101690008CF283FA4CF3A2FA8CF3E3B9D1E9042378
:1016A00082FA4CF200F10800A4FA8CF283FA4CF3AF
:1016B000A2FA8CF37BB9D1E9062301F1200182FA69
:1016C0004CF200F10800A4FA8CF283FA4CF3A2FA6F
:1016D0008CF3002BC6D0002A04BF04301A4612BA7D
:1016E000B2FA82F2FDE8024500EBD2007047D1E980
:1016F000002304F00305C4F100004FEAC50514F00F
:10170000040F91F840F00CFA05F562EA05021CBFDF
:1017100063EA050362464FF00004A9E72DE9F84F9C
:101720008B6F9C0490462DD59368126843B38B460B
:10173000064602F1080959E9025A5FEA9A0715D0EC
:10174000043D002401E0A7420ED055F8041F5A467C
:10175000304601F043F9431C04F10104F3D10023A6
:10176000C8E90133BDE8F88FD8F808302AF0030A39
:10177000A3EB0A03C8F8083009F10809002BDAD1F5
:101780000020ECE701F0DCFA0023C8E90133BDE8F2
:10179000F88F00BF10B4946814B15DF8044BBDE736
:1017A000204654605DF8044B704700BF2DE9F04FB0
:1017B0002DED028BABB008EE100A1C468A4693460C
:1017C000069318B18369002B00F03A820CA901201E
:1017D00011F04BFFDAF87830BAF90C10DE078AB254
:1017E00002D48D0540F1658590040AD4DAF878308A
:1017F00041F4005223F40053AAF80C20CAF87830C0
:1018000092B2110740F1A980DAF81030002B00F0F5
:10181000A48002F01A030A2B00F0AE800023CDE969
:101820000E330893039318EE107A1AAB0D93984673
:101830009BF80030002B00F026815C4604E014F891
:10184000013F002B00F0FD80252BF8D1B4EB0B05F8
:1018500040F0FA802378002B00F015814FF0000350
:1018600000218DF82B304FF0FF3263780591084648
:10187000894604F1010B02920BF1010BA3F1200246
:10188000582A00F21E81DFE812F0B4021C011C018C
:10189000AF021C011C011C011C011C011C01A40243
:1018A0009F021C019A0280021C017B025900590010
:1018B00059005900590059005900590059001C019C
:1018C0001C011C011C011C011C011C011C011C0130
:1018D0001C015F021C011C011C011C011C011C01DC
:1018E0001C011C011C011C01CD001C011C011C0160
:1018F0001C011C0195001C011C01CB021C011C01D8
:101900001C011C011C011C011C011C011C011C01EF
:10191000BC02DE011C011C011C010703DE011C01CD
:101920001C01FA021C01E402CF0050024B021C0110
:101930002A021C0197001C011C010902A3F13002BC
:1019400000241BF8013B04EB840402EB4404A3F1E4
:101950003002092AF5D9059490E718EE100A51468D
:1019600000F004FE002840F08E84BAF80C2002F04B
:101970001A030A2B7FF452AFBAF90E30002BFFF690
:101980004DAFDAF87830DE0702D4950540F14B858B
:101990000CA90C9811F069FE18EE100A23465A465D
:1019A000514600F095FD039003982BB0BDEC028BDF
:1019B000BDE8F08F49F0100919F0200F069B00F0E8
:1019C0002F81073323F00703F3E802450693012331
:1019D0004FF000028DF82B2000220792029A114648
:1019E000013100F0608229F08001019154EA050183
:1019F00040F05782002A40F0DC84002B40F02B841A
:101A000019F00103049340F05D841AAE029B049A1E
:101A10009342B8BF1346079A0093002A64D001335B
:101A2000009361E049F0100919F0200300F0E7800D
:101A3000069B073323F00703F3E8024506930023D0
:101A4000C6E7B4EB0B051ED0DDE90E3201332A44A4
:101A5000072BCDE90E32C8F800B0C8F8045006DCF8
:101A600008F10808039A23782A440392F3E6002A2F
:101A700000F0D5830DAA51463846FFF74FFE40B916
:101A80000DF16808EEE70F9B002B40F0C1840023A6
:101A90000E93DAF87830DA0740F1A7800C980CA999
:101AA00011F0E3FDBAF80C3013F0400F039B18BFA0
:101AB0004FF0FF33039303982BB0BDEC028BBDE8CE
:101AC000F08F002940F0A084002BDCD001228DF89B
:101AD00040304FF0000300928DF82B30049210AE8E
:101AE0000023CDF804900293019B13F0020302D06F
:101AF000009A02320092DDE90E2C019C501C14F079
:101B000084040146079405D1059C009D641B002CAC
:101B100000F3D9829DF82B4008F108007CB10CF14C
:101B2000010C0DF12B0401220729CDE90E1CC8E997
:101B3000004200F394820A46804601310830DBB14E
:101B40000CF1020C0BAA02230729CDE90E1CC8E9EF
:101B5000002340F3A082BCF1000F00F06C830DAABB
:101B600051463846FFF7DAFD002892D1DDE90E2C08
:101B70001CA8511C0DF16808079B802B00F0CD813B
:101B8000029B049C1D1B002D00F31682049A0E91EB
:101B9000134663440729C8E900620F930CDD002B4C
:101BA00000F0D6820DAA51463846FFF7B7FD00284F
:101BB0007FF46FAF0F9B1AA8019A510705D5059ABC
:101BC0000099541A002C00F3CD82039A05990098CD
:101BD0008142ACBF521812180392002B40F03182A0
:101BE00000230E930DF1680822E6BAF80C309B052D
:101BF0003FF554AF0AF1600011F018FD4EE706986A
:101C000019F0100200F1040140F0808319F0400344
:101C100000F0E8831346069A069114880025D7E65B
:101C200019F0100F03F1040240F0638319F0400F24
:101C3000069B00F05E831C88069200250123C7E600
:101C4000FEF75CFBC2E5002940F00E8419F0200F7E
:101C5000069B00F08380073323F007031946F1E861
:101C60000223069114461D46002A73F10003C0F2B8
:101C7000E882029B013300F014829DF82B30079319
:101C800054EA050329F0800940F00E82029B002BE4
:101C900040F00F82CDF804900493B6E6002940F09E
:101CA000EC83C94A089219F0200F00F0C280069A0E
:101CB000073222F00702F2E80245069219F0010FFE
:101CC0000BD054EA050208D030228DF82D3049F0AF
:101CD00002098DF82C2002237AE6022378E6069C7E
:101CE00054F8046B4FF000038DF82B30002E00F0F9
:101CF0001E83029A1346013300F0668300213046AA
:101D0000FEF74EFF002800F09B83831B04939DF891
:101D10002B30079300230694CDF80490029375E6C8
:101D20009BF8003049F02009A6E5069B53F8044BC8
:101D3000069347F63002A44B0893ADF82C2049F0E7
:101D400002090025022343E6002940F09B8349F065
:101D5000100919F0200F069B7FF47DAF19F0100FCA
:101D600003F1040140F0BB8219F0400F069B00F024
:101D7000B682B3F900400691E51722462B4673E779
:101D80009BF8003049F0800976E55C4614F8013B89
:101D90002A2B00F08083A3F13002092AA34698BFC2
:101DA000002400F257831BF8013B04EB840402EB90
:101DB0004404A3F13002092AF5D902945EE59BF8A8
:101DC000003049F0040957E59BF8003001212B2031
:101DD00052E5069A9BF8003052F8044B0594002C0B
:101DE000C0F2A182069247E59BF8003049F0010954
:101DF00042E59BF8003000287FF43EAD0121202011
:101E00003AE5069B012153F8042B00914FF00000A6
:101E10008DF82B008DF840200693049110AE5FE6FC
:101E2000002940F01B83694A089219F0200F7FF4C3
:101E30003EAF069919F0100F01F1040240F05582EF
:101E400019F0400F069900F050820C880692002588
:101E500034E7002940F00583069A19F0200F52F864
:101E6000043B069240F04B8219F0100F40F076824E
:101E700019F0400F00F07282039A1A80D8E49BF8A0
:101E800000306C2B03BF9BF8013049F020090BF1A7
:101E9000010B49F01009EFE49BF8003049F04009CC
:101EA000EAE4DDF80490012B00F0FE80022B1AAE6C
:101EB00014D10898230904F00F0143EA05732A0995
:101EC0001C461546435C06F8013D54EA0503F1D172
:101ED0001AAB9B1BCDF80490049397E5E20842EA05
:101EE0004572E90804F007030D461446303354EAFE
:101EF0000501324606F8013DF0D119F0010FE7D097
:101F0000302BE5D03023023A06F8013C1AAB9B1A7D
:101F1000CDF804900493164678E5059B009C1D1BA4
:101F2000002D7FF72DAE102D294C40F3B1824FF0DC
:101F30001009634606E0901C08F108080A46103DA7
:101F4000102D1ADD511C10330729C8E900490F93E1
:101F50000E91F0DD0DAA51463846002B7AD0FFF7DE
:101F6000DDFB00287FF495ADDDE90E23103D102D3B
:101F700002F101000DF16808E4DC9C4608F1080359
:101F8000AC440728C8E90045CDF83CC00E9040F3AA
:101F9000A081BCF1000F00F04C820DAA51463846DA
:101FA000FFF7BCFB00287FF474ADDDE90E2C1CA804
:101FB000511C0DF16808E3E5102D054C40F3188223
:101FC0004FF0100963460CE0705E02085C5E020888
:101FD00010520208911C08F108080246103D102D0D
:101FE00019DD501C10330728C8E900490F930E90E3
:101FF000F0DD0DAA51463846F3B1FFF78FFB0028FC
:102000007FF447ADDDE90E23103D102D02F10101F3
:102010000DF16808E5DC9C4608F10803AC4407298B
:10202000C8E90045CDF83CC00E9100F3E5800131D0
:1020300003F108009846A9E501211A460DF1680848
:10204000CCE70DAA51463846FFF768FB00283FF45D
:10205000C7AD1EE501201A460DF168086FE7BCF117
:10206000000F00F0E0800DAA514638460993FFF7B3
:1020700055FB00287FF40DADDDE90E2C099B511CAA
:102080001CA80DF168085AE502230BAACDE91A2312
:102090009C461CA8012180460A46511C08F10800F4
:1020A0006AE59DF82B300793002D08BF0A2C80F0BD
:1020B0005981303401238DF86740CDF804900493A2
:1020C0000DF16706A2E4102CBD4D40F3D9814146C5
:1020D0004FF01009B0461E46634607E002F1020EBB
:1020E00008310246103C102C18DD501C1033072814
:1020F000C1E900590F930E90F0DD0DAA5146384604
:102100000BB3FFF70BFB00287FF4C3ACDDE90E2314
:10211000103C102C02F1010E1AA9E6DC9C46334655
:1021200046468846A444BEF1070FC8E90054CDF8DE
:102130003CC0CDF838E000F3938008F108080EF1B8
:1021400001017246E6E41A464FF0010E1AA9C9E7EA
:10215000019A0E93500746D5059A0099541A002CFF
:1021600041DD1AA8102C0E99954D40F38E81102652
:1021700006E001F1020C08301146103C102C18DD6D
:102180004A1C1033072AC0E900560F930E92F0DD67
:102190000DAA514638460BB3FFF7C0FA00287FF46A
:1021A00078ACDDE90E13103C102C01F1010C1AA8DB
:1021B000E6DC2344BCF1070FC0E900540F93CDF8CF
:1021C00038C07FF702AD73B10DAA51463846FFF70C
:1021D000A5FA00287FF45DAC0F9BF6E44FF0010CEC
:1021E00019461AA8C9E7039B059A00998A42ACBF11
:1021F0009B185B180393F3E4BCF1000F00F0D1804F
:102200000DAA51463846FFF789FA00287FF441AC01
:10221000DDE90E1C1CA801310DF16808B6E40E9230
:102220000DF168081EE4002B75D111461CA862460A
:102230000DF16808A0E41CA8012162460DF16808B0
:102240009AE42D2364428DF82B30079365EB450506
:102250000123FFF7C3BB029B04931AAEFFF7D6BB63
:10226000BCF1000F6DD00DAA514638460993FFF717
:1022700055FA00287FF40DACDDE90E2C099B511CAA
:102280000DF1680846E4DAF87830DB0704D4BAF8D0
:102290000C309F0540F1EC800C980CA911F0E5F989
:1022A0004FF0FF33039303982BB0BDEC028BBDE8D6
:1022B000F08F0AF1600011F097F9BAF90C108AB2A8
:1022C000FFF792BA30238DF867300DF16706FFF7FC
:1022D0009DBB411C0246984603F1080050E41C686F
:1022E0000691E51722462B46BEE40C6806920025AF
:1022F000E4E41C68069201230025FFF769BB039AFA
:102300001046D117C3E90001FFF792BA046806919D
:102310000025FFF75DBB02230BA9CDE91A139C46EC
:102320000DF17008B9E66442CDE9054249E5029B2A
:10233000244E0694062B28BF062304930093FFF730
:10234000CFBB9DF82B20002A54D1002B7FF49CAEEC
:1023500062461CA801210DF1680811E4039A1A6075
:10236000FFF766BA1AAE204629460A22002303F078
:1023700059FE303206F8012D00230A222046294654
:1023800003F050FE2B462246002B08BF0A2A0446C3
:102390000D46E8D21AAB9B1BCDF804900493FFF7CF
:1023A00035BB049B1B9301220F931A960E921CA817
:1023B00002E4012BDDF804907FF478AD79E600BFEC
:1023C00000520208845E02083046FFF739F99DF892
:1023D0002B30079300230694CDF8049004900293C9
:1023E000FFF714BB069A069114680025FFF7F0BAB0
:1023F000034613E601220DF12B001A9094461B921E
:1024000011461CA8FFF797BB8DF82B00FFF75CBBAC
:1024100018EE100A0DAA5146FFF780F900283FF484
:1024200036ABFFF736BB0AF1600011F0FFF8FFF79B
:10243000AFBA1CA8012162460DF16808FFF7A0BBE6
:102440009DF82B300793029B0493CDE901900694ED
:10245000FFF7DCBA00220292FFF710BA8DF82B00CA
:10246000E1E48DF82B00F7E48DF82B00FFF7EEBBCD
:102470000AF1600011F0DAF80EE78DF82B0010E495
:1024800086464FE68DF82B0061E401F1010C90E6E1
:102490000346084674E5069A9BF8013052F8045B3F
:1024A0000692A34645EAE5740294FFF7E5B900BF3A
:1024B00030B583B00D46044601920CF021FD019B1E
:1024C0002A46214603B0BDE83040FFF76FB900BF90
:1024D000F0B50C46E1B0A56F89891E95256AA66AFC
:1024E000089521F0020120ADE789ADF80C100A969D
:1024F00000954FF48076049569460025CDE9056581
:10250000CDE91855CDE91A550296ADF80E7006467C
:10251000FFF74CF9051E07DB3046694600F0B8F9B5
:10252000002818BF4FF0FF35BDF80C305B0603D50F
:10253000A38943F04003A38118A811F044F828466A
:1025400061B0F0BD00B583B0009101900CF0D8FCF3
:10255000DDE90032816803B05DF804EBFFF726B9CE
:1025600013460A468168FFF721B900BF38B5054612
:102570000C460CF0C5FC10B18369002B3CD0B4F9BB
:102580000C3018079AB20CD52169A9B112F00100DC
:1025900022D0606900254042A061A56011B30020EF
:1025A00038BDD1063FD5520729D4216943F008032D
:1025B000A3819AB20029E9D102F42070B0F5007F1E
:1025C000E4D02846214600F0A1FDB4F90C30216981
:1025D0009AB212F00100DCD1950758BF6069A06083
:1025E0000029DCD1120658BF0846D9D543F0400374
:1025F000A3814FF0FF3038BDFDF780FEBFE7616B70
:1026000051B104F14402914204D0284600F08EFA00
:10261000B4F90C30002262632169216000226260FB
:1026200023F02403C2E743F0400309222A604FF05D
:10263000FF30A38138BD00BFF0B50C4683B0002940
:102640005AD0054610B18369002B59D001A9012049
:1026500011F00BF8A36FDE073BD5B4F90C30002B5B
:1026600046D004F160072146284600F069F8236B44
:10267000064633B1216A284698470028B8BF4FF074
:10268000FF36A3891A0646D4616B41B104F14403B5
:10269000994202D0284600F049FA00236363A16CF6
:1026A00021B1284600F042FA0023A364FDF7C4FEDE
:1026B000A36F0022DB07A28132D5384610F083FFDA
:1026C000FDF7C0FE019801A910F0CFFF304603B01E
:1026D000F0BDA389980504F16007C4D4384610F012
:1026E00083FFB4F90C30002BBDD1A36FD9070AD5F5
:1026F000019801A910F0B9FF0026304603B0F0BDE3
:10270000FDF7FCFDA2E7384610F090FF019801A903
:1027100010F0ABFFF0E72169284600F007FAB3E7B5
:10272000384610F083FFC8E700B583B001900CF085
:10273000E7FB019903B05DF804EBFFF77DBF00BF35
:10274000B1F90C202DE9F0410D461107804648D41F
:102750006B6842F40062002BAA815EDDEC6A002CFB
:1027600058D00023D8F80060296AC8F8003093B226
:1027700012F4805255D101234046A047431C69D032
:10278000AB89EC6A296A5F0705D56A686B6B801AAA
:102790000BB12B6CC01A024600234046A047441CD4
:1027A00049D1D8F80020B5F90C30002A5FD01D2A95
:1027B00001D0162A67D12A690021C5E9002123F436
:1027C0000063AB81696BC8F8006019B305F144037D
:1027D000994202D0404600F0A9F900206863BDE8A4
:1027E000F0812F69B7B193B22E682F6099070CBFA3
:1027F0006B690023F61BAB600AE0AC6A296A3346BA
:102800003A464046A047041EA6EB040627440ADDCC
:10281000002EF2DC0020BDE8F0812B6C002B9DDC4B
:10282000F8E7A86DAFE7AB8943F04003AB814FF009
:10283000FF30BDE8F081B5F90C302A692A6023F435
:10284000006300226A60DA04AB81BBD5C117C5E919
:102850001601B7E7D8F80030002B91D01D2B0FD010
:10286000162B0DD0AB8943F04003AB81D3E723F4A3
:1028700000632969AB81DB04C5E90012A2D5E5E755
:10288000C8F80060C6E743F04003AB81C3E700BF70
:1028900030B50B6983B03BB10C46054608B183697E
:1028A00013B3B4F90C301BB90025284603B030BD72
:1028B00001A9012010F0D9FEA36FD80702D4A38983
:1028C000990518D528462146FFF73AFFA36FDA0786
:1028D000054602D4A3899B0512D5019801A910F0E1
:1028E000C4FE284603B030BDFDF708FDB4F90C3036
:1028F000002BD9D0DCE704F1600010F075FEE1E7B1
:1029000004F1600010F092FEE7E700BF40B110B59F
:1029100004460CF0F5FA2146BDE81040FFF7B8BFB9
:10292000024B03491868FDF703BE00BFFC510208C3
:10293000912800082DE9F04782B080468946144668
:1029400000F098FB012803D109F1FF33FE2B36D9A3
:102950004A4604F1700301A9404600F067FE421C9C
:10296000064632D030B39DF804C000250DF1040AAC
:1029700009E023685A1C226083F800C00135B54283
:1029800018D215F80AC0A368013B002BA360F0DA47
:10299000A769BB4261462246404602DBBCF10A0FF2
:1029A000E7D100F0DDFD431CE8D10646304602B019
:1029B000BDE8F0874E46304602B0BDE8F0875FFACA
:1029C00089FC06468DF804C0CFE7A389304643F062
:1029D0004003A38102B0BDE8F08700BF70B5144684
:1029E00082B005460E46012001A910F03EFEA36FFD
:1029F00013F0010FB4F90C309AB201D1980520D52B
:102A0000910406D4A26F43F4005342F40052A38110
:102A1000A267284622463146FFF78CFFA36FDA07EC
:102A2000054602D4A3899B0506D5019801A910F09B
:102A30001CFE284602B070BD04F1600010F0F6FDE7
:102A4000F3E704F1600010F0CFFDB4F90C309AB256
:102A5000D6E700BF30B583B0054601910CF050FABF
:102A6000019A044608B1836933B12946204603B070
:102A7000BDE83040FFF7B2BFFDF740FC019A2946A0
:102A8000204603B0BDE83040FFF7A8BFF8B5244F9B
:102A90000C4606460CF028FABB685D68C4F57B71ED
:102AA000033125F003054B1923F47F7323F003034F
:102AB000A3F58064B4F5806F07DB002130460CF08D
:102AC000D9F9BB682B44984204D030460CF012FA76
:102AD0000020F8BD614230460CF0CCF901300DD039
:102AE000104AB96813682D1B45F0010530461B1BC1
:102AF0004D6013600CF0FEF90120F8BD0021304656
:102B00000CF0B8F9BA68831A0F2BDEDD064C0549C4
:102B1000246843F00103001B53600860D5E700BF41
:102B20007C020010E419001084060010002963D014
:102B3000F8B50C4606460CF0D7F954F8045C7D490C
:102B400025F00100A4F1080C0CEB00038F685A6813
:102B50009F4222F0030200F08E80ED075A6003EBE3
:102B6000020736D454F808EC7C68ACEB0E0C01F18B
:102B70000807DCF80850BD42704404F0010468D036
:102B8000DCF80CE0C5F80CE0CEF80850002C00F0A2
:102B9000998040F00102CCF804201860B0F5007F65
:102BA00033D2C3084C6801334209012090402043CE
:102BB00001EBC30251F833404860083ACCE90242C5
:102BC00041F833C0C4F80CC03046BDE8F8400CF002
:102BD00091B97D68ED0710D4104401F108079A6897
:102BE000BA4240F0010475D0DB68D3609A60CCF83B
:102BF00004404CF80000D1E7704740F00102B0F506
:102C0000007F44F8042C1860CBD3B0F5206F4FEA56
:102C100050234CD2830903F13905ED0003F138024A
:102C20004B594C19083C9C425DD05A6822F0030273
:102C3000824202D99B689C42F7D1DC68CCE902341D
:102C40003046C4F808C0C3F80CC0BDE8F8400CF02A
:102C500051B9002C68D1D3E90231024442F001009D
:102C6000D9608B60CCF8040030464CF80220BDE8F7
:102C7000F8400CF03FB9EF07024408D454F8083C80
:102C8000ACEB030C1A44DCE90203C36098602A4BE6
:102C90001B6842F001009342CCF80400C1F808C060
:102CA00092D8264B30461968FFF7F0FE8CE7142BBC
:102CB0000AD9542B1FD8030B03F16F05ED0003F164
:102CC0006E02ADE710448AE703F15C05ED0003F105
:102CD0005B02A5E7C1E904CCCCE90277CCF804405B
:102CE0004CF8000070E748689210012505FA02F2DE
:102CF00002434A60A2E7B3F5AA7F06D8C30B03F1EB
:102D00007805ED0003F177028AE740F254529342CE
:102D100006D8830C03F17D05ED0003F17C027FE70B
:102D20004FF47E757E227BE740F00102CCF8042050
:102D3000186049E77C02001088060010E0190010B6
:102D40009368002B00F0FB802DE9F04F9046B1F91D
:102D50000C200C46110783B0824693B231D522690C
:102D60007AB313F00207D8F8005039D00027D4F80E
:102D700028B0216ADFF8B8923E464E4533463A46BF
:102D800028BF4B465046C6B1D847002840F3CD80F7
:102D9000D8F808301B1A0744361AC8F80830002B38
:102DA00000F0B2804E453346D4F828B0216A28BFDF
:102DB0004B463A465046002EE6D1D5E90076083516
:102DC000DBE721465046FFF7D1FB002840F02D817C
:102DD000B4F90C20D8F8005093B213F00207C5D113
:102DE00013F001095DD1A76820684E46002E54D02B
:102DF0009A0540F1A680B742BB4600F2E38013F487
:102E0000906F2FD0D4E9041707EB4707A0EB010B15
:102E100007EBD777701C7F105844B8423A4684BFFE
:102E200007463A465B0540F1E48011465046FDF7FF
:102E3000FFFB002800F0F3805A4621690090FDF75F
:102E40002FFFA289009B22F4906242F08002A281AF
:102E5000A7EB0B0203EB0B00676123612060A2600C
:102E60003746B34649465A46FDF7B4FFA168236882
:102E7000C91B5B443746A16023600026D8F80830A0
:102E8000DB1BB944C8F80830002B3DD0B4F90C3036
:102E9000A76820689BB2002EAAD1D5E90096083514
:102EA000A4E7A94638463E463D460097002E76D018
:102EB00000287CD0009A2068D4E90413B24228BFCD
:102EC0003246884204D9A16803EB010B5A451FDC46
:102ED000934200F38180216AA76A2A465046B84788
:102EE000B0F1000B21DD009BB3EB0B0300936CD022
:102EF0000120D8F80830A3EB0B035D44A6EB0B06CA
:102F0000C8F80830002BD1D1002003B0BDE8F08F05
:102F100029465A46FDF75EFF23685B44236021463D
:102F20005046FFF7B5FC0028DDD0B4F90C3043F073
:102F300040034FF0FF30A38103B0BDE8F08F0020C5
:102F400070472369834214D36169B14211D86FF08D
:102F50000043B34228BF3346A76A93FBF1F34A46C6
:102F600001FB03F35046216AB847071EDDDDF61B5F
:102F700084E7B74228BF37463A464946FDF72AFF5D
:102F8000A3682268DB1B3A44A3602260002BEED1C9
:102F900021465046FFF77CFC0028E8D0C5E709F140
:102FA000080353E9025699460833002EF9D03246F9
:102FB0000A212846FDF7F4FD70B30130431B00934E
:102FC0001A4678E73746B3464CE721465046FFF7A6
:102FD0005FFC00288DD0A8E729460192FDF7FAFE94
:102FE000019AA1682368891A1344A160236093465B
:102FF00079E7504600F0F6F8034600287FF428AF42
:1030000021695046FFF792FDB4F90C300C2223F0F1
:103010008003CAF800208AE7721C00924BE70C2359
:10302000CAF80030B4F90C3081E74FF0FF306CE79C
:1030300000FFFF7F42B110B50B4910461446FEF762
:1030400033F918B9094810BD0848704707492046A8
:10305000FEF72AF90028F5D005492046FEF724F9A5
:103060000028EFD0002010BD905E02088C5E0208A0
:10307000285E02080120704710B582B00446019115
:103080000BF03EFF019A214602B0BDE81040FFF769
:10309000D1BF00BF70B50C46B1F90E10002998B031
:1030A00016461D461BDB6A460CF02BF8002816DB83
:1030B000029B139A03F47043A3F50051B1FA81F116
:1030C0004909002A29601ADDB3F5004F0CBF4FF4FF
:1030D00080604FF400603260226518B070BDA18935
:1030E000002311F080002B6004D04022184632608B
:1030F00018B070BD4FF48073336018B070BD4FF4DA
:1031000080734FF40060336018B070BD70B58B8968
:103110009D0782B00C4607D501F147030122C1E9A2
:1031200004320B6002B070BD01AB6A460646FFF781
:10313000B1FF009905463046FDF77AFA80B1B4F93F
:103140000C20174B33620199206042F08003009AF3
:10315000A381C4E9040299B92B43A38102B070BDD5
:10316000B4F90C309A05DDD423F0030304F14702CF
:1031700043F002030121C4E90421A3812260D1E7C5
:10318000B4F90E1030460BF0F1FF10B9B4F90C3061
:10319000E2E7A28922F0030242F0010213B2DBE768
:1031A0004502000810B4034CD4F8E440A4465DF88E
:1031B000044B60472052020882B049B15AB16BB14A
:1031C00013780B601278101E18BF012002B07047F0
:1031D00001A9002AF3D1104602B070476FF0010038
:1031E000F4E700BF2DE9F84F1646002900F0C18032
:1031F00006F10B050C4607460BF076FE162D62D83D
:1032000010252A46AE4263D854F804EC2EF0030889
:10321000A4F10809904509EB080A80F28580C94BA2
:10322000DAF804009968514500F0BB8020F00103F2
:1032300053445B68DB0700F1908020F0030008EB4B
:103240000003934280F219811EF0010F11D154F84E
:10325000083CA9EB030BDBF8041021F00301084440
:1032600000EB0803934280F21C8108EB01039342B8
:1032700034DA31463846FDF7DBF90646E8B154F852
:10328000043C23F001034B44A0F10802934200F0F8
:10329000FC80A8F10402242A00F2FF80132A21688E
:1032A00000F2CD8003462246196051685960926849
:1032B0009A6021463846FFF739FC38460BF01AFE73
:1032C0003046BDE8F88F25F00705002D2A4699DA2B
:1032D0000C233B6000263046BDE8F88F5E46DBF8E5
:1032E0000C1056F8080FA8F10402242AC1600BEB59
:1032F000030A886000F2DD80132A216840F2D7803B
:10330000CBF808106168CBF80C101B2AA16800F2FA
:10331000E4800BF110020834116061685160A1680B
:1033200091609846D9463446D9F80430A8EB050296
:103330000F2A03F0010321D848EA0303C9F8043037
:10334000DAF8043043F00103CAF804303846264660
:103350000BF0D0FD3046BDE8F88F1EF0010F88D18C
:1033600054F8083CA9EB030BDBF8041021F003012F
:103370007BE7BDE8F84F1146FDF75AB909EB0501A7
:103380002B4342F00102C9F804304A60DAF80430F5
:1033900043F001030831CAF804303846FFF7C6FB92
:1033A000D4E720F0030008EB000105F1100C6145A3
:1033B00050DA1EF0010F7FF45CAF54F8081CA9EB43
:1033C000010BDBF8041021F00301084400EB080AAC
:1033D000D4453FF74AAF5E46DBF80C1056F8080FAD
:1033E000A8F10402242AC160886000F29980132A9F
:1033F000216840F29380CBF808106168CBF80C107C
:103400001B2AA16800F292800BF1100208341160AF
:1034100061685160A16891600BEB0501AAEB0502A0
:1034200042F0010299604A60DBF8043003F00103C6
:103430001D433846CBF804500BF05CFD4BE70160B0
:10344000636843601B2A3CD8A16804F1080200F1BC
:10345000080329E709EB05004A1B42F001029860C6
:10346000426054F8043C03F001031D43384644F81D
:10347000045C0BF03FFD26462DE7DAE90212984680
:10348000CA6009EB030A91604EE750F8043C23F050
:103490000303984409EB080A46E72146FDF79AFC26
:1034A00007E7DAE902125E46CA60916017E7324622
:1034B00032E7214630469846D946FDF78BFC344624
:1034C00032E7A3688360E368C360242A11D02169CE
:1034D00004F1100200F11003E6E6CBF81010E168E9
:1034E000CBF81410242A0ED021690BF118021034E5
:1034F00012E72369036163694361A16904F118025A
:1035000000F11803D0E62269CBF818206269CBF8E5
:103510001C20A1690BF120021834FDE6324676E743
:1035200021463046FDF756FC064B75E7CBF81010E8
:10353000E168CBF81410242A06D021690BF1180297
:10354000103464E77C0200102269CBF8182062690D
:10355000CBF81C20A1690BF12002183457E700BFFB
:10356000F8B50D461446064610B18369002B43D0CA
:10357000B4F90C20A369A360170790B21BD5236987
:10358000CBB1EDB281042F4622D522686169D31AEE
:10359000994229DD0133A168501C0139A1602060E6
:1035A000157062699A422AD0A389DB0701D50A2DDA
:1035B00025D03846F8BD21463046FEF7D7FF20BB60
:1035C000B4F90C20236990B2EDB281042F46DCD40B
:1035D000A16F42F4005221F40051A2812268A16738
:1035E0006169D31A9942D5DC21463046FFF750F97C
:1035F00058B922680123CEE7FCF780FEB8E72146E0
:103600003046FFF745F90028D3D04FF0FF37D0E719
:1036100010B582B0044601910BF072FC019A21466C
:1036200002B0BDE81040FFF79BBF00BFF0B50B4CE8
:1036300085B0D4F8E06005461F4621B1B047431C71
:1036400006D005B0F0BD0A4601A9B047431CF8D129
:1036500000228A233A602B6005B0F0BD2052020898
:103660002DE9F04184B004460E4615460BF048FCA7
:103670000D4B8046D3F8E07044B12B4632462146CC
:10368000B847431C08D004B0BDE8F0812B46224661
:1036900001A9B847431CF6D100228A232A60C8F842
:1036A000003004B0BDE8F0812052020810B4034C91
:1036B000D4F8E040A4465DF8044B6047205202086D
:1036C00049B1FF2A02D80A70012070478A2303609B
:1036D0004FF0FF3070470846704700BF00B510EE4E
:1036E000103A214A23F00043934283B01ADDB3F12C
:1036F000FF4F04DB30EE400A03B05DF804FB684680
:1037000000F0D6F900F00300012813D0022820D0E1
:10371000B8B1DDED010A9DED000A01F0B5F9B1EE99
:10372000400AE9E7DFED110A002001F06FFD03B068
:103730005DF804FBDDED010A9DED000A01F0A4F93E
:10374000DAE7DDED010A9DED000A012001F05EFDE2
:10375000D2E7DDED010A9DED000A012001F056FDE2
:10376000B1EE400AC8E700BFD80F493F0000000093
:103770002DE9F04F2DED028B8DB057EC106B55EC11
:10378000114B00F0E5FAB64BB0EE408AF0EE608ADD
:1037900093F90090B9F1FF3F37D022462B462046DF
:1037A000294602F0D9FB834678BB32463B46304679
:1037B000394602F0D1FB8046002840F093804FF05C
:1037C000000A4FF0000B3046394652465B4602F085
:1037D00091FB18B352465B462046294602F08AFB0D
:1037E0000190002857D09F4BCDF828800122CDE9C9
:1037F0000467CDE90645CDE908AB02920393B9F120
:10380000000F00F089809FED928BB0EE480AF0EE39
:10381000680A0DB0BDEC028BBDE8F08FB0EE480A2F
:10382000F0EE680A01F092FD8046002800F08280E8
:103830004FF000084FF0000951EC180B42464B4680
:1038400002F058FB0028E0D047EC106B01F07EFD41
:103850000028DAD045EC104B01F078FD0028D4D0D8
:103860007F4B804A93F90030039204210022022BFF
:10387000CDE90467CDE90645CDE9088902910A92B0
:1038800004D002A801F0E0FD00284AD103F09AFC20
:103890002223036045E045EC104B01F057FD002862
:1038A000B3D052465B462046294602F02DFB002845
:1038B000ABD06B4B01996B4A93F900300A9101210F
:1038C000CDE90467CDE90645CDE90212002B79D197
:1038D000CDE908AB02A801F0B7FD002878D00A9B1B
:1038E0002BB320E0002200232046294602F002FBF1
:1038F00000288AD09FED568B5A4BCDF828B0012274
:10390000B9F1020FCDE90467CDE906458DED088BCD
:10391000029203933FF479AF02A801F095FD0028CD
:103920005BD00A9B1BB103F04DFC0A9B03609DED2D
:10393000088B6AE747EC106B01F008FD00283FF4A4
:1039400077AF45EC104B01F001FD00283FF470AF5C
:1039500053EC182B18EE100A194602F0FDFA404BF2
:1039600093F90090002840F087800323DFF8F4C02B
:103970000A9029462046029300223B4BCDF80CC00A
:10398000CDE90645CDE9046702F04CF804460D4642
:10399000B9F1000F26D1DFF8DC904FF060485246B5
:1039A0005B4630463946CDE9088902F0ADFA40BBA6
:1039B00002A801F049FD002891D103F003FC222365
:1039C00003608CE729490020022BCDE9080181D151
:1039D00003F0F8FB2123036081E703F0F3FB2123CD
:1039E00003609EE79FED1C7B52465B46304639469E
:1039F0008DED087B02F088FAB8B9B9F1020FDCD07E
:103A0000D6E745EC104B01F02BFD224651EC100B94
:103A10002B4602F06FFAB8B9154B11494FF06042CE
:103A2000CDE9082391F90090E7E745EC104B01F050
:103A300017FD224651EC100B2B4602F05BFA18B929
:103A40000A4B0022CDE90823054B93F90090D4E7F7
:103A5000000000000000F03F000000000000F07FC8
:103A60008C0600109C5E02080000E03F0000F0FFA2
:103A7000FFFFEFC7FFFFEF470C4BCDF82880012277
:103A8000CDE90467CDE9064502920393B9F1000F31
:103A90003FF41EAF52465B465046594602F0ECF8E2
:103AA000B9F1020FCDE9080192D013E79C5E02083C
:103AB00070B510EE103A974A23F00044944286B055
:103AC000054668DD944A944210EE106A1ADC002B19
:103AD000DFED927A924A24F00F0440F3F48094428E
:103AE00070EE677A66D09FED8F7A77EEC76A012015
:103AF00077EEE67AC5ED006A77EEC77AC5ED017A12
:103B000006B070BD884A944267DDB4F1FF4F49DAD0
:103B1000E215863AA4EBC25307EE903ABDEEE77A7F
:103B2000DFED826AB8EEC77A77EEC77A8DED037A59
:103B300067EEA67ABDEEE77AB8EEC77A77EEC77A77
:103B40008DED047A67EEA67AF5EE407AF1EE10FA82
:103B5000CDED057A40F0A480B5EE407AF1EE10FA92
:103B600014BF02230123724901910221009103A88D
:103B7000294601F00BF8002EC2DA95ED007AD5ED5A
:103B8000017AB1EE477AF1EE677A404285ED007A2C
:103B9000C5ED017AB4E7002285ED000A42600020FD
:103BA00006B070BD70EE407A0020C5ED017AC5ED1B
:103BB000007AA5E7DFED5F6A9FED5F7A77EEE67A40
:103BC000012077EEC76A77EEE67AC5ED006A77EEF8
:103BD000C77AC5ED017A06B070BD01F069FBDFED73
:103BE000576A9FED4E6A9FED4F7AF6EE007AE0EE4F
:103BF000267AFDEEE77A17EE900AF8EEE76A1F28BC
:103C0000A6EEC60A66EE877AB1EE666A1EDC421E32
:103C10004B4B53F8223024F0FF029A4230EE677A81
:103C200016D085ED007A30EE470A002E30EE670A96
:103C300085ED010ABFF664AFB1EE477AB1EE400AF6
:103C400085ED007A85ED010A404259E730EE677A4A
:103C500017EE103AC3F3C753C3EBD453082B4FEA04
:103C6000E454DEDDDFED337A9FED337AF0EE405A37
:103C7000E6EE275A30EE650AA6EE270AF0EE407A05
:103C8000D6EE877A35EEE77A17EE103AC3F3C753CC
:103C9000E41A192C06DC85ED007AB0EE650AC2E75D
:103CA000032360E79FED277A9FED275AB0EE650A60
:103CB000A6EE070A75EEC07AE6EE077AD6EE857AAA
:103CC00030EE677AADE7944270EE277A0ED09FED22
:103CD000157A77EE876A4FF0FF3077EEE67AC5ED1A
:103CE000006A77EE877AC5ED017A09E7DFED116AA0
:103CF0009FED117A77EEA67A4FF0FF3077EE876A64
:103D000077EEE67AC5ED006A77EE877AC5ED017A3F
:103D1000F6E600BFD80F493FE3CB1640800FC93FFE
:103D2000D00FC93F43443537800F494300008043DB
:103D3000105502080044353708A3852E84F9223F28
:103D40009054020800A3852E32318D24000000001B
:103D50002DE9F04F57EC116B2DED0A8B27F0004A3F
:103D60005AEA060289B03DD055EC104B764925F051
:103D70000048884510EE102AA9462CDC11EE103AB6
:103D8000BB463AD08A4526DC6F498A4521D0B9F135
:103D9000000F3DDB00210391002B55D16A4B9A4562
:103DA00000F0A880694B9A4500F0B680BBF1804FC7
:103DB00000F00185664B9B4546D1B9F1000F43DB0E
:103DC00045EC104B09B0BDEC0A8BBDE8F04F00F09C
:103DD00099BD002BDBD008F1404808F5801858EA5F
:103DE00002030DD19FED547B8DED007B9DED000B0B
:103DF00009B0BDEC0A8BBDE8F08F0CB9C245C3DD3C
:103E0000544809B0BDEC0A8BBDE8F04F01F020BB6F
:103E100051498A4500F38780A1F154718A450FDD2D
:103E20004FEA2A51A1F2FF31142940F3CE84C1F1A7
:103E3000340123FA01F000FA01F1994200F02085E3
:103E400000210391002BADD045EC104B069201F000
:103E500025FA069A8DED000B5ABBB8F1000F04D07D
:103E60003A4B29F040429A4223D1BBF1000F07DAC6
:103E7000DDE900233549002001F0FEFECDE9000117
:103E8000B9F1000FB2DA039B08F1404808F5801839
:103E900058EA030340F0BE84DDE9002310461946CA
:103EA00001F008FC02460B4601F0E6FECDE90001F8
:103EB0009CE7039A4FEAD973013B0693134335D02D
:103EC000264B9A454EDD03F104739A45244B40F38B
:103ED000ED83984540F36B83BBF1000F40F36B8398
:103EE00017A3D3E900231046194601F09BFDCDE945
:103EF00000017BE708F1404303F5801313433FF4CF
:103F000071AF174B984540F38883BBF1000FC0F2A7
:103F10005283CDE9006769E7BBF1000FC0F241842D
:103F2000CDE9004562E70221039135E722462B46A1
:103F3000B4E700BFAFF30080000000000000F03FD6
:103F40009C7500883CE4377E0000F07F0000F03F65
:103F50000000E03F285E0208FFFF3F430000E04111
:103F6000FFFFEF3FE44B09EA0303002B40F0168408
:103F7000DDE90001E14B002201F054FDCDE9000133
:103F8000DDF804806FF034004FEA2853DC49C8F3B1
:103F90001302A3F2FF3342F07F5818188A420790A9
:103FA00048F4401840F3E983D64B9A4240F33E84EC
:103FB0009FEDBB7BB0EE47BAF0EE67BAB0EE47CAF2
:103FC000F0EE67CA9FEDB87B013054EC173B0790C9
:103FD000A8F580184FF00009DDE900AB44EC183B70
:103FE0001A4650462346414601F064FB53EC182B19
:103FF00004460D465046414601F05EFB02460B4624
:104000000020C14901F038FE45EC1A4B41EC190B78
:1040100051EC1A0B53EC192B01F004FDC3464FEA87
:10402000680848F0005808F5002303EB09050A4624
:1040300000230146CDE900120093DDE90089002448
:10404000CDE904122B4622464046494601F0EAFCDF
:1040500002460B4651EC1A0B01F02CFB41EC170BFE
:1040600053EC182B2046294655EC174B01F022FB48
:1040700002460B465046594601F01CFB42464B4651
:1040800001F0D0FC02460B462046294601F012FB07
:1040900053EC192B01F0C6FCDDE904AB04460D46D8
:1040A00052465B465046594601F0BCFC80A3D3E91A
:1040B000002345EC1A4B04460D4601F0B3FC7EA3E9
:1040C000D3E9002301F0F8FA22462B4601F0AAFCBE
:1040D0007BA3D3E9002301F0EFFA22462B4601F03F
:1040E000A1FC79A3D3E9002301F0E6FA22462B468E
:1040F00001F098FC76A3D3E9002301F0DDFA224613
:104100002B4601F08FFC74A3D3E9002301F0D4FA0D
:1041100022462B4604460D461046194601F082FC05
:1041200002460B462046294601F07CFC42460446E6
:104130000D464B4650465946CDE904AB01F0BCFA5A
:1041400053EC1A2B01F06EFC22462B4601F0B4FA18
:10415000424604460D464B464046494601F062FC45
:1041600045EC194B694B002282468B4601F0A4FABC
:1041700053EC192B01F0A0FA009C0D4622462B4669
:104180004046494601F04EFC604B8046894600227D
:104190002046294601F08EFA52465B4601F08AFA23
:1041A00002460B4651EC190B01F084FADDE90423B9
:1041B00001F038FC49EC188B2246804689462B4694
:1041C00051EC1A0B01F02EFC02460B4640464946C4
:1041D00001F072FA82468B4652465B4651EC180B50
:1041E00001F06AFA009C3EA3D3E9002320460D4665
:1041F00001F018FC53EC182B8046894620462946CE
:1042000001F058FA02460B465046594601F052FA60
:1042100035A3D3E9002301F005FC49EC198B34A345
:10422000D3E90023804689462046294601F0FAFB5F
:1042300002460B464046494601F03EFA53EC1C2B21
:1042400001F03AFA824607988B4601F081FB52460C
:10425000804689465B4651EC190B01F02DFA53EC70
:104260001B2B01F029FA42464B4601F025FA009C2F
:1042700042464B4620460D4601F01CFA53EC1B2BE0
:1042800001F018FA53EC192B01F014FA02460B4610
:104290005046594601F00EFA82468B4638E000BF80
:1042A0000000000000000000000000000000F03FDF
:1042B000EF4E454A287ECA3F65DBC9934A86CD3F0B
:1042C00001411DA96074D13F4D268F515555D53FF1
:1042D000FFAB6FDBB66DDB3F033333333333E33F89
:1042E000000000E009C7EE3FFD033ADC09C7EE3FDE
:1042F000F5015B14E02F3EBE0000F07F000040435C
:104300008E98030079B60B000000F03F00000840D3
:10431000039B069A013B134340F078819FEDC47BD9
:10432000B0EE479AF0EE679A0023CDE9006700935C
:10433000DDE900893046424639464B4601F0BAF97C
:1043400022462B4601F06EFB32463B4606460F46A0
:104350005046594601F066FB02460B463046394648
:1043600001F0AAF9424682468B464B462046294632
:1043700001F058FB06460F463B465046594632462A
:1043800001F09AF9C44B994204460D46884640F321
:10439000178101F13F4303F5E003034340F02A8214
:1043A000A5A3D3E900235046594601F085F93246CA
:1043B00041EC180B3B462046294601F07BF90246AA
:1043C0000B4651EC180B01F0BDFD002840F01282A5
:1043D000C8F30A534FF48012A3F2FE3342FA03F3F8
:1043E0004344AE49C3F30A52A2F2FF3241FA02FC3F
:1043F000C3F3130523EA0C01C2F1140445F480153C
:10440000B8F1000F0B4645FA04F103914FF000009C
:10441000B8BF49420246B8BF03913046394601F061
:1044200049F906460F463B4650465946324601F08A
:1044300043F9039B1B0500930D46002480A3D3E999
:1044400000232046294601F0EDFA3246804689468F
:104450003B462046294601F02DF902460B465046C0
:10446000594601F027F978A3D3E9002301F0DAFADD
:1044700077A3D3E9002306460F462046294601F0DC
:10448000D1FA02460B463046394601F015F9064688
:104490000F4632463B464046494601F00DF942463A
:1044A0004B4604460D4601F005F902460B463046E0
:1044B000394601F0FFF8224682468B462B462046BD
:1044C000294601F0AFFA64A3D3E9002306460F465C
:1044D00001F0A8FA62A3D3E9002301F0EBF8324619
:1044E0003B4601F09FFA60A3D3E9002301F0E4F812
:1044F00032463B4601F096FA5DA3D3E9002301F072
:10450000D9F832463B4601F08DFA5BA3D3E900238C
:1045100001F0D2F832463B4601F084FA02460B46DF
:104520002046294601F0C6F806460F4632463B466D
:104530002046294601F076FA0022804689464FF04F
:1045400080433046394601F0B5F802460B464046F6
:10455000494601F091FB524606460F465B4620460F
:10456000294601F05FFA52465B4601F0A5F8024683
:104570000B463046394601F09DF822462B4601F0A5
:1045800099F802460B460020454901F093F80B4686
:1045900000991944B1F5801F0246C0F269811046A6
:1045A00053EC192B01F03EFACDE900011EE4BBF1FA
:1045B000000FFFF695AC9FED327B8DED007B15E48F
:1045C000DFF8E4C021F00043634540F30B81354B35
:1045D0000B4403430AD132463B4601F06BF8524686
:1045E0005B4601F0A5FC00283FF4F2AE26A3D3E918
:1045F000002351EC190B01F015FA23A3D3E9002392
:1046000001F010FACDE90001FFF7F0BB9FED207B30
:10461000B0EE479AF0EE679A86E6BBF1000FCADA71
:1046200007F1004300960193FFF7E0BBAFF3008072
:10463000000000000000F0BFFE822B654715973C8C
:1046400000000000432EE63FEF39FAFE422EE63F1F
:10465000396CA80C615C20BED0A4BE726937663E7E
:10466000F16BD2C541BDBB3E2CDE25AF6A56113F72
:1046700093BDBE166CC1663F3E5555555555C53F59
:10468000000000000000000059F3F8C21F6EA501F1
:10469000000000000000F03FFFFF8F40FFFF0F0011
:1046A0000000F03F00346F3FFFCB90409845FFF68D
:1046B0007EAF914B98453FF70FAC8F4B0022DDE961
:1046C000000100F0F7FF78A3D3E9002304460D466C
:1046D00001F0A8F976A3D3E9002382468B46204651
:1046E000294601F09FF9854B8046894600222046E5
:1046F000294601F097F902460B466FA1D1E9000166
:1047000000F0D8FF22462B4601F08CF902460B46FA
:1047100000207B4900F0CEFF22462B4604460D4682
:104720001046194601F07EF902460B4620462946FE
:1047300001F078F962A3D3E9002301F073F902468E
:104740000B464046494600F0B5FF80468946504634
:10475000594642464B4600F0AFFF002452465B46A6
:1047600020460D4600F0A6FF02460B46404649464D
:1047700000F0A0FF82468B46CAE59FED537BB0EE6A
:1047800047BAF0EE67BAB0EE47CAF0EE67CA9FEDDF
:10479000507B4FF0000954EC173B1DE40020FFF75D
:1047A000F3BB554922462B46002001F065FACDE9BE
:1047B0000001FFF71BBB22462B462046294601F08D
:1047C00031F9CDE90001FFF711BB002B42D1C1F156
:1047D00014014AFA01F000FA01F151455AD003934D
:1047E000FFF7E0BA464A93425BDCDDE90012009134
:1047F000039122E638A3D3E9002351EC190B01F011
:1048000011F935A3D3E9002301F00CF9CDE900013A
:10481000FFF7ECBA039B012B7FF4E8AADDE9002146
:1048200001F10043CDE90023FFF7E0BA9FED2C7BB7
:10483000B0EE47BAF0EE67BA9FED2B7BB0EE47CAF9
:10484000F0EE67CA9FED2A7B4FF4802954EC173BAA
:10485000FFF7C2BB45EC104B039200F01FFD039A1B
:104860008DED000B002A7FF461AB0392FFF7F5BAE0
:10487000039843EC102B00F087FE51EC100B8FE6F1
:1048800000F00100C0F102010391002B3FF48AAA5D
:10489000FFF7DABA00F00100C0F102030393FFF75B
:1048A00081BA1B1596E500BF000000604715F73F71
:1048B00044DF5DF80BAE543E555555555555D53F23
:1048C000FE822B654715F73F000000000000000046
:1048D000000000000000F03F9C7500883CE4377E3B
:1048E0000000004003B8E23F06D0CF43EBFD4C3E52
:1048F000000000000000F83F0000F03F0000D03F43
:104900000000E03F2DE9F0415E4955EC104BA94312
:1049100000F09880002D10EE102A2B464FDD2D154B
:104920005BD0C3F31303D10F43F4801301EB4303B4
:10493000E907A5F2FF3E4FEA420403D4E40F04EB7B
:10494000430394004FF0000C4FEA6E0E66461625A6
:104950004FF40012B118994202DC5B1A8E1894448D
:104960005B00013D03EBD4734FEA52024FEA44046B
:10497000F0D12F4620204FF0004209E03DD0E10F5A
:1049800001384FEA520201EB43034FEA44043DD0A1
:10499000B34202EB0501F1DD002901EB020509DB61
:1049A000B0469B1BA14288BF03F1FF33641A174432
:1049B0004646E4E7002DF3DB06F10108F1E725F0B8
:1049C0000041214335D0002D4CD1D10A153D52056F
:1049D0000B460029F9D0CF024FD400205B00DE0245
:1049E000044600F10100F9D5194613468240C0F192
:1049F0002000C3400B432D1B93E7A142BFD80029E1
:104A000001EB0205D6DB98460023CFE7234312D102
:104A100078084FEA6C0101F17F511CF0010F01F59C
:104A2000001118BF40F0004001EB0E53024643EC6A
:104A3000102BBDE8F0817B1C16BF781C0CF1010C1B
:104A40004008E6E710EE102A10EE100A2B46294621
:104A500000F0E8FF22462B4600F02EFE41EC100B42
:104A6000BDE8F0812046294600F024FE02460B46B0
:104A700001F002F941EC100BDBE7134620204FF068
:104A8000FF34B6E70000F07F10EE103A23F0004349
:104A9000B3F1485F2CDAFDEEC07A17EE903A002BA6
:104AA00060D020EE007ADFED314A9FED315ADFED24
:104AB000315A9FED316ADFED317ADFED316AA7EED1
:104AC000245AE7EE055AA7EE256AE7EE067AE7EEE6
:104AD000276A67EE266A60EEC00AF6EE007AE7EE15
:104AE000260AB7EE000AD7EE270A30EE600A7047B2
:104AF00020EE007ADFED1D4A9FED1D5ADFED1D5AB5
:104B00009FED1D6ADFED1D7ADFED1D6A1D4AA7EEE0
:104B1000245A9342E5EE075AA5EE876AE6EE077A35
:104B2000E7EE876A66EE876AD5DD174A934214DCA2
:104B300003F17F4307EE903AB7EE006A36EE676AFC
:104B400060EEC00AF6EE005AE7EE260AD7EE257AA6
:104B500077EEE00A36EE600A7047B6EE076AF5EEC9
:104B6000027AEDE7B7EE000A704700BF4ED747ADB7
:104B7000F6740F317CF293B4010DD037610BB6BAE5
:104B8000ABAA2A3D9999993E0000483F2DE9F04F84
:104B90002DED048BDBB0AB4C689D0791111D54F8D3
:104BA000256004930992834603F1FF39C0F2B8826D
:104BB000D31E44BF13460433DB1003930133DB00E1
:104BC0000893DDE908239B1A0693039B16EB090162
:104BD000A3EB090316D401319FED9C7A699819441F
:104BE0001EAA002BA4BF50F8234007EE904A03F101
:104BF0000103ACBFF8EEE77AF0EE477A8B42E2ECC5
:104C0000017AEED1002EC0F2EF82049B1EA901EBC7
:104C1000830446AD4FEA830C4846F7180BEB83013B
:104C2000B9F1000FDFED897A09DB22465B46F3EC30
:104C3000016A32ED017A8B42E6EE877AF7D10130D4
:104C4000B842E5EC017A04F10404E9D10DF1280839
:104C500008EB8603083B05939FED7D9ADFED7A8A8A
:104C60000698009609AB03EB860A0BEB0C0446AFE3
:104C70005B465AAA02EB8602002E12ED140A4FEA96
:104C8000860B16DD07EB8602414660EE097AB0EE30
:104C9000407AFDEEE77A72ED016AF8EEE77ABA4201
:104CA000A7EEE87A37EEA60ABDEEC77AA1EC017A44
:104CB000EBD1CDE9010300F055FBB0EE408AB4EE34
:104CC000000A28EE000A00F0FBFAF2EE007AA0EEED
:104CD000678A0198029BFDEEC89A0028F8EEE97AEF
:104CE00038EE678A78DD06F1FF3CC0F1080258F81B
:104CF0002C5045FA02F101FA02F2AA1A48F82C20C7
:104D0000C0F1070519EE90CA42FA05F58C44002D52
:104D100009EE90CA68DCB5EE408AF1EE10FA40F078
:104D2000CA80009A06F1FF3E724510DC06F180420F
:104D3000013A08EB820200219C4652F804395245A0
:104D400041EA0301F9D16346002940F01581009A38
:104D5000013A58F82220002A40F00981059A4FF0C4
:104D6000010C52F804190CF1010C0029F9D006F1DC
:104D7000010BB444DE460499039A8D195A441EA9C6
:104D800002F1804201EB85056999013A01EB820647
:104D900007EB8B0BD6ED017A9FED2C7AF8EEE77AD4
:104DA000B9F1000F06F104062946C5ED007A05F1B8
:104DB000040509DB1A4601E071ED017AF2EC016AA3
:104DC000A242A6EEA77AF7D10EF1010EE645ABECB2
:104DD000017ADFDD66464CE740F0BF80721E58F86E
:104DE00022502D12002D96DD19EE902A002E02F190
:104DF000010209EE902A40F3AC81D8F80010002996
:104E000040F0A780012E2FD0C6464FF0010C5EF86F
:104E1000041F0CF1010241B9964225D05EF8041F2F
:104E200094460CF101020029F6D0C1F5807196423A
:104E300048F82C1017DD58F82210C34408EB820202
:104E40000BE000BF2858020800008043000000006B
:104E50000000803B0000C93F1168C1F1FF0142F82A
:104E6000041B5A45F8D1012100280CDD012800F06F
:104E70004E81022807D106F1FF3C58F82C2002F0A1
:104E80003F0248F82C20022D7FF445AFB7EE000A10
:104E900030EE488A00293FF43EAFCDE9010300F02F
:104EA00061FA38EE408ADDE90103B5EE408AF1EEA1
:104EB00010FA3FF436AFDDE90832B0EE480A981A2E
:104EC0000196009E00F04EFA1FED217A019BB4EE90
:104ED000C70AF1EE10FAAA46C0F264815FED247AA7
:104EE000069A60EE277A0832FDEEE77A0692F8EE2F
:104EF000E77A5D1CA7EEC70A0698FDEEE77ABDEEDD
:104F0000C00A10EE102A48F8232017EE903AB7EEA8
:104F1000000A48F8253000F025FA002D4ADA689B8F
:104F2000022B00F36581002B00F3698108D15FED4E
:104F3000397A53460BB1F1EE677A079BC3ED007ADD
:104F400019EE903A03F007005BB0BDEC048BBDE8AE
:104F5000F08F01224FF0000C67E7F6EE007AB4EE16
:104F6000E78AF1EE10FA80F2E0800025D3E606F140
:104F7000010BDE46DC46FEE6069958F82E2008397D
:104F80003346AA46009E0691754662B903F18043F6
:104F9000023B08EB83030A4653F80419013D083A23
:104FA0000029F9D006920698B7EE000A00F0DAF967
:104FB000002DB4DB4FEA850946AB03EB090409F188
:104FC000040E1FED5D7A08EB0E03221D73ED017ACE
:104FD000F8EEE77A434567EE807A20EE070A62ED45
:104FE000017AF3D10DF1C8081FED666AC4462F4659
:104FF0000020002EC0F2AA808249DFED837A22468B
:10500000B0EE467A002303E0834208DCB1EC017A7B
:10501000F2EC016A01339E42E6EE877AF4DA013F50
:105020007B1CECEC017A00F10100A4F10404E0D156
:10503000689B022B14DC002B00F38D8080D1DFED08
:10504000727AC6443EED017AC64577EE877A3FF420
:1050500070AF3EED017AC64577EE877AF2D168E708
:10506000689B032B7FF46CAF002D00F0C5805AAB1A
:105070004B4413ED287A08EB850373ED017AF0EECB
:10508000476A37EE277A984577EEC77A83ED007A3C
:1050900077EEA67AC3ED017AEFD1012D40F3AC8013
:1050A00005F180455AAB013D9944AD002B1D19ED2A
:1050B000287A434433AA73ED017AF0EE476A37EE5B
:1050C000277A9A4277EEC77A83ED007A77EEA67A4E
:1050D000C3ED017AEFD10835DFED4B7A08EB05031C
:1050E00008F1080833ED017A984577EE877AF9D10F
:1050F0005346DDED326A9DED337A002B5AD1079B82
:10510000C3ED006A83ED017AC3ED027A18E706F178
:10511000FF3C58F82C2002F07F0248F82C20B2E621
:1051200008230893002303934BE519EE902A002EE1
:1051300002F1010209EE902AC8BF02253FF75DAED9
:10514000F7EE007A37EEC88A0225E4E5DFED2E7A25
:1051500065E7002188E66B1CDFED2B7A08EB830303
:1051600033ED017A984577EE877AF9D153467BBBC8
:105170009DED327A079B002DC3ED007A77EE677ABA
:105180000CDD33AA0123B2EC017A01339D4277EEA4
:10519000877AF8DA53460BB1F1EE677A079BC3EDD5
:1051A000017ACDE6BDEEC00A1D4610EE102A48F881
:1051B0002320F8E6079BF1EE666AB1EE477AF1EE3E
:1051C000677AC3ED006A83ED017AC3ED027AB7E630
:1051D000DDED326A079BB1EE677A002D76EEE77A55
:1051E00083ED007ACDDCD7E7049B4FEA830C2DE5F5
:1051F000689B032B7FF4A4AEDFED037A78E7DFED45
:10520000027AB3E7385802080000000010EE103AA6
:1052100023F00043B3F1485F04DAFDEEC07A17EEE5
:10522000903A5BB360EE007A9FED155ADFED155AA8
:105230009FED156ADFED156A9FED157AE7EE855A49
:1052400020EE275AA5EEA76AE6EE276AA6EEA77A11
:1052500030B9DFED106AE7EE876AA6EE850A70477F
:1052600027EE457AF6EE006AA0EEA67ADFED0A6A2E
:10527000D7EE270AE5EE260A30EE600A704700BF37
:10528000D3C92E2F342FD7B21BEF3836010D50B9AA
:105290008988083CABAA2ABEABAA2A3E51EC100B67
:1052A00010EE102A21F0004343EC102B704700BF92
:1052B00010EE103A23F0004300EE103A704700BFA2
:1052C00010EE102AC2F3C7537F3B162B22F0004189
:1052D0001ADC002B1EDB1A4919410A4227D0DFEDE8
:1052E000197A70EE277AF5EEC07AF1EE10FA1EDD2B
:1052F000002A04DA4FF4000040FA03F31A4422EAC9
:10530000010300EE103A7047B1F1FF4F0FD330EEBA
:10531000000A7047DFED0B7A70EE277AF5EEC07A5F
:10532000F1EE10FA03DD002A02DB9FED070A704759
:105330000029FFEE007A18BFB0EE670A704700BF81
:10534000FFFF7F00CAF249710000000082B08DEDBE
:10535000000B019840F0004000F58010C00F02B033
:10536000704700BF82B08DED010A019B33F000420F
:105370002AD0B2F1FF4F23D213F0FF4F28D19DED79
:10538000017ADFED2A7A2A4B67EE277A9842CDED33
:10539000017A37DB019BC3F3C752193A0244FE2A54
:1053A0001ADD9FED240A9FED247A019B002BF0EE7D
:1053B000407AB8BFB0EE470A20EE270A02B0704725
:1053C00030EE000A02B070479DED010A02B070474E
:1053D000D20D0244FE2AE4DC002A0BDC12F1160F87
:1053E00017DA4CF250339842DBDC9FED140A9FED44
:1053F000147ADAE723F0FF4343EAC25300EE103A8F
:1054000002B070479FED0D0ADDED017A27EE800AAC
:10541000D8E7193223F0FF4343EAC253DFED097A9C
:1054200007EE103A27EE270ACCE700BF0000004C39
:10543000B03CFFFFCAF24971CAF249F16042A20DC5
:105440006042A28D00000033002070470000000081
:105450009FED010B704700BF000000000000F87FC7
:10546000F0B553EC102BC3F30A56A6F2FF30132805
:1054700010EE105A83B019464FEAD37431DC00287D
:105480004CDB3E4E064103EA060717432ED003EAE3
:1054900056031D434FEA56060CD04FF480231328C1
:1054A00021EA060643FA00F141EA06010CBF4FF07B
:1054B00000450025324800EBC4042A46D4E90045E3
:1054C0000B462046294600F0F7F8CDE90001DDE95A
:1054D000000122462B4600F0EDF841EC100B03B022
:1054E000F0BD332806DDB0F5806F40D043EC102BC3
:1054F00003B0F0BDA6F213464FF0FF30F040024279
:10550000F4D015EA50024FEA5003D3D04FF0804256
:1055100025EA030542FA06F63543CBE723F00040BF
:105520001043E3D0C3F3130010434542054314482E
:1055300000EBC400D0E90067590C2D0B490405F4B9
:10554000002545EA01033046394600F0B5F8CDE9BB
:1055500000013B46DDE90001324600F0ABF821F0E6
:10556000004343EAC47141EC100B03B0F0BD10EEF0
:10557000100A00F0A1F841EC100BB9E7FFFF0F0093
:10558000605802080000000038B553EC102BC3F33C
:105590000A511C46054681BB10EE101A23F0004448
:1055A000214329D0194600223D4B3E4C10EE100AF3
:1055B00000F038FAA54202460B4616DB0C46C1F352
:1055C0000A513639294440F2FE70814221DC00291B
:1055D00047DC11F1350F34DA4CF250318D4218DCD2
:1055E000002B27A1D1E9000144DB25A3D3E9002347
:1055F00000F018FA41EC100B38BD40F2FF70814208
:10560000E0D110EE100A194600F056F841EC100BEC
:1056100038BD002B1CA1D1E9000107DB1AA3D3E997
:10562000002300F0FFF941EC100B38BD18A1D1E9BF
:10563000000115A3D3E9002300F0F4F941EC100BAD
:10564000F3E724F0FF4424F4E004363144EA015344
:10565000104619460022144B00F0E4F941EC100BFF
:1056600038BD24F0FF4424F4E00444EA015343EC41
:10567000102B38BD08A1D1E90001B6E7AFF30080D7
:1056800059F3F8C21F6EA5019C7500883CE4377E73
:105690009C7500883CE437FE59F3F8C21F6EA58163
:1056A00000005043B03CFFFF0000903C81F00041FF
:1056B00002E000BF83F0004330B54FEA41044FEAF7
:1056C000430594EA050F08BF90EA020F1FBF54EA92
:1056D000000C55EA020C7FEA645C7FEA655C00F02E
:1056E000E2804FEA5454D4EB5555B8BF6D420CDDFF
:1056F0002C4480EA020281EA030382EA000083EA82
:10570000010180EA020281EA0303362D88BF30BD21
:1057100011F0004F4FEA01314FF4801C4CEA113177
:1057200002D0404261EB410113F0004F4FEA0333D6
:105730004CEA133302D0524263EB430394EA050F61
:1057400000F0A780A4F10104D5F1200E0DDB02FAD0
:105750000EFC22FA05F2801841F1000103FA0EF264
:10576000801843FA05F359410EE0A5F120050EF12A
:10577000200E012A03FA0EFC28BF4CF0020C43FA5B
:1057800005F3C01851EBE37101F0004507D54FF068
:10579000000EDCF1000C7EEB00006EEB0101B1F5B8
:1057A000801F1BD3B1F5001F0CD349085FEA3000FE
:1057B0004FEA3C0C04F101044FEA445212F5800F09
:1057C00080F09A80BCF1004F08BF5FEA500C50F1A6
:1057D000000041EB045141EA050130BD5FEA4C0C89
:1057E000404141EB0101013C28BFB1F5801FE9D2E6
:1057F00091F0000F04BF01460020B1FA81F308BF09
:105800002033A3F10B03B3F120020CDA0C3208DDD4
:1058100002F1140CC2F10C0201FA0CF021FA02F1AF
:105820000CE002F11402D8BFC2F1200C01FA02F11F
:1058300020FA0CFCDCBF41EA0C019040E41AA2BF44
:1058400001EB0451294330BD6FEA04041F3C1CDA0C
:105850000C340EDC04F11404C4F1200220FA04F02C
:1058600001FA02F340EA030021FA04F345EA0301D6
:1058700030BDC4F10C04C4F1200220FA02F001FA98
:1058800004F340EA0300294630BD21FA04F029461A
:1058900030BD94F0000F83F4801306BF81F48011B3
:1058A0000134013D4EE77FEA645C18BF7FEA655C26
:1058B00029D094EA050F08BF90EA020F05D054EAF8
:1058C000000C04BF1946104630BD91EA030F1EBFFD
:1058D0000021002030BD5FEA545C05D14000494101
:1058E00028BF41F0004130BD14F580043CBF01F5F4
:1058F000801130BD01F0004545F0FE4141F47001DA
:105900004FF0000030BD7FEA645C1ABF19461046B4
:105910007FEA655C1CBF0B46024650EA013406BFB5
:1059200052EA033591EA030F41F4002130BD00BF74
:1059300090F0000F04BF0021704730B54FF4806431
:1059400004F132044FF000054FF0000150E700BFB2
:1059500090F0000F04BF0021704730B54FF4806411
:1059600004F1320410F0004548BF40424FF00001FE
:105970003EE700BF42004FEAE2014FEA31014FEA41
:1059800002701FBF12F07F4393F07F4F81F0605190
:10599000704732F07F4208BF704793F07F4F04BFDB
:1059A00041F40021704730B54FF4607401F00045B8
:1059B00021F000411CE700BF50EA010208BF704718
:1059C00030B54FF000050AE050EA010208BF704709
:1059D00030B511F0004502D5404261EB41014FF472
:1059E000806404F132045FEA915C3FF4D8AE4FF07A
:1059F00003025FEADC0C18BF03325FEADC0C18BF5D
:105A0000033202EBDC02C2F1200300FA03FC20FAAD
:105A100002F001FA03FE40EA0E0021FA02F11444FA
:105A2000BDE600BF70B54FF0FF0C4CF4E06C1CEA13
:105A300011541DBF1CEA135594EA0C0F95EA0C0F84
:105A400000F0DEF82C4481EA030621EA4C5123EAF7
:105A50004C5350EA013518BF52EA033541F4801126
:105A600043F4801338D0A0FB02CE4FF00005E1FBD9
:105A700002E506F00042E0FB03E54FF00006E1FB23
:105A800003569CF0000F18BF4EF0010EA4F1FF0466
:105A9000B6F5007F64F5407404D25FEA4E0E6D41A6
:105AA00046EB060642EAC62141EA55514FEAC520B7
:105AB00040EA5E504FEACE2EB4F1FD0C88BFBCF533
:105AC000E06F1ED8BEF1004F08BF5FEA500E50F1E4
:105AD000000041EB045170BD06F0004646EA0101AA
